{
  "result": {
    "hash": "00000000c937983704a73af28acdec37b049d214adbda81d7e2a3dd146f6ed09",
    "confirmations": 643039,
    "strippedsize": 216,
    "size": 216,
    "weight": 864,
    "height": 1000,
    "version": 1,
    "versionHex": "00000001",
    "merkleroot": "fe28050b93faea61fa88c4c630f0e1f0a1c24d0082dd0e10d369e13212128f33",
    "tx": [
      {
        "txid": "fe28050b93faea61fa88c4c630f0e1f0a1c24d0082dd0e10d369e13212128f33",
        "hash": "fe28050b93faea61fa88c4c630f0e1f0a1c24d0082dd0e10d369e13212128f33",
        "version": 1,
        "size": 135,
        "vsize": 135,
        "weight": 540,
        "locktime": 0,
        "vin": [
          {
            "coinbase": "04ffff001d02fd04",
            "sequence": 4294967295
          }
        ],
        "vout": [
          {
            "value": 50,
            "n": 0,
            "scriptPubKey": {
              "asm": "04f5eeb2b10c944c6b9fbcfff94c35bdeecd93df977882babc7f3a2cf7f5c81d3b09a68db7f0e04f21de5d4230e75e6dbe7ad16eefe0d4325a62067dc6f369446a OP_CHECKSIG",
              "hex": "4104f5eeb2b10c944c6b9fbcfff94c35bdeecd93df977882babc7f3a2cf7f5c81d3b09a68db7f0e04f21de5d4230e75e6dbe7ad16eefe0d4325a62067dc6f369446aac",
              "type": "pubkey"
            }
          }
        ],
        "hex": "01000000010000000000000000000000000000000000000000000000000000000000000000ffffffff0804ffff001d02fd04ffffffff0100f2052a01000000434104f5eeb2b10c944c6b9fbcfff94c35bdeecd93df977882babc7f3a2cf7f5c81d3b09a68db7f0e04f21de5d4230e75e6dbe7ad16eefe0d4325a62067dc6f369446aac00000000"
      },
      {
        "txid": "4852fe372ff7534c16713b3146bbc1e86379c70bea4d5c02fb1fa0112980a081",
        "hash": "4852fe372ff7534c16713b3146bbc1e86379c70bea4d5c02fb1fa0112980a081",
        "version": 1,
        "size": 1408,
        "vsize": 1408,
        "weight": 5632,
        "locktime": 0,
        "vin": [],
        "vout": [
          {
            "value": 0.0381,
            "n": 0,
            "scriptPubKey": {
              "asm": "OP_DUP OP_HASH160 45db0b779c0b9fa207f12a8218c94fc77aff5045 OP_EQUALVERIFY OP_CHECKSIG",
              "hex": "76a91445db0b779c0b9fa207f12a8218c94fc77aff504588ac",
              "reqSigs": 1,
              "type": "pubkeyhash",
              "addresses": [
                "mmtKKnjqTPdkBnBMbNt5Yu2SCwpMaEshEL"
              ]
            }
          },
          {
            "value": 0.5,
            "n": 1,
            "scriptPubKey": {
              "asm": "",
              "hex": "",
              "type": "nonstandard"
            }
          }
        ],
        "hex": "01000000081cefd96060ecb1c4fbe675ad8a4f8bdc61d634c52b3a1c4116dee23749fe80ff000000009300493046022100866859c21f306538152e83f115bcfbf59ab4bb34887a88c03483a5dff9895f96022100a6dfd83caa609bf0516debc2bf65c3df91813a4842650a1858b3f61cfa8af249014730440220296d4b818bb037d0f83f9f7111665f49532dfdcbec1e6b784526e9ac4046eaa602204acf3a5cb2695e8404d80bf49ab04828bcbe6fc31d25a2844ced7a8d24afbdff01ffffffff1cefd96060ecb1c4fbe675ad8a4f8bdc61d634c52b3a1c4116dee23749fe80ff020000009400483045022100e87899175991aa008176cb553c6f2badbb5b741f328c9845fcab89f8b18cae2302200acce689896dc82933015e7230e5230d5cff8a1ffe82d334d60162ac2c5b0c9601493046022100994ad29d1e7b03e41731a4316e5f4992f0d9b6e2efc40a1ccd2c949b461175c502210099b69fdc2db00fbba214f16e286f6a49e2d8a0d5ffc6409d87796add475478d601ffffffff1e4a6d2d280ea06680d6cf8788ac90344a9c67cca9b06005bbd6d3f6945c8272010000009500493046022100a27400ba52fd842ce07398a1de102f710a10c5599545e6c95798934352c2e4df022100f6383b0b14c9f64b6718139f55b6b9494374755b86bae7d63f5d3e583b57255a01493046022100fdf543292f34e1eeb1703b264965339ec4a450ec47585009c606b3edbc5b617b022100a5fbb1c8de8aaaa582988cdb23622838e38de90bebcaab3928d949aa502a65d401ffffffff1e4a6d2d280ea06680d6cf8788ac90344a9c67cca9b06005bbd6d3f6945c8272020000009400493046022100ac626ac3051f875145b4fe4cfe089ea895aac73f65ab837b1ac30f5d875874fa022100bc03e79fa4b7eb707fb735b95ff6613ca33adeaf3a0607cdcead4cfd3b51729801483045022100b720b04a5c5e2f61b7df0fcf334ab6fea167b7aaede5695d3f7c6973496adbf1022043328c4cc1cdc3e5db7bb895ccc37133e960b2fd3ece98350f774596badb387201ffffffff23a8733e349c97d6cd90f520fdd084ba15ce0a395aad03cd51370602bb9e5db3010000004a00483045022100e8556b72c5e9c0da7371913a45861a61c5df434dfd962de7b23848e1a28c86ca02205d41ceda00136267281be0974be132ac4cda1459fe2090ce455619d8b91045e901ffffffff6856d609b881e875a5ee141c235e2a82f6b039f2b9babe82333677a5570285a6000000006a473044022040a1c631554b8b210fbdf2a73f191b2851afb51d5171fb53502a3a040a38d2c0022040d11cf6e7b41fe1b66c3d08f6ada1aee07a047cb77f242b8ecc63812c832c9a012102bcfad931b502761e452962a5976c79158a0f6d307ad31b739611dac6a297c256ffffffff6856d609b881e875a5ee141c235e2a82f6b039f2b9babe82333677a5570285a601000000930048304502205b109df098f7e932fbf71a45869c3f80323974a826ee2770789eae178a21bfc8022100c0e75615e53ee4b6e32b9bb5faa36ac539e9c05fa2ae6b6de5d09c08455c8b9601483045022009fb7d27375c47bea23b24818634df6a54ecf72d52e0c1268fb2a2c84f1885de022100e0ed4f15d62e7f537da0d0f1863498f9c7c0c0a4e00e4679588c8d1a9eb20bb801ffffffffa563c3722b7b39481836d5edfc1461f97335d5d1e9a23ade13680d0e2c1c371f030000006c493046022100ecc38ae2b1565643dc3c0dad5e961a5f0ea09cab28d024f92fa05c922924157e022100ebc166edf6fbe4004c72bfe8cf40130263f98ddff728c8e67b113dbd621906a601210211a4ed241174708c07206601b44a4c1c29e5ad8b1f731c50ca7e1d4b2a06dc1fffffffff02d0223a00000000001976a91445db0b779c0b9fa207f12a8218c94fc77aff504588ac80f0fa02000000000000000000"
      }
    ],
    "time": 1232346882,
    "mediantime": 1232344831,
    "nonce": 2595206198,
    "bits": "1d00ffff",
    "difficulty": 1,
    "chainwork": "000000000000000000000000000000000000000000000000000003e903e903e9",
    "nTx": 1,
    "previousblockhash": "0000000008e647742775a230787d66fdf92c46a48c896bfbc85cdc8acc67e87d",
    "nextblockhash": "00000000a2887344f8db859e372e7e4bc26b23b9de340f725afbf2edb265b4c6"
  },
  "error": null,
  "id": "curltest"
}
